:1000000045C0000060C000005EC000005CC0000091
:100010005AC0000058C0000056C0000054C0000084
:1000200052C0000050C0000085C000004CC000005D
:100030004AC0000048C0000046C0000044C00000A4
:1000400043C0000040C000003EC000003CC00000B3
:100050003AC0000038C0000036C0000034C00000C4
:1000600032C0000030C000002EC000002CC00000D4
:100070002AC0000028C0000026C0000024C00000E4
:1000800022C0000020C000001EC0000011241FBEBE
:10009000CFEFD0E1DEBFCDBF11E0A0E0B1E0E8EAF4
:1000A000FCE000E00BBF02C007900D92A832B10740
:1000B000D9F721E0A8E2B1E001C01D92A63DB20748
:1000C000E1F7D0D3EFC59CCF1F920F920FB60F92DE
:1000D00011242F938F939F93AF93BF938EEF82BF83
:1000E0008091BC019091BD01A091BE01B091BF0172
:1000F0000196A11DB11D8093BC019093BD01A093F9
:10010000BE01B093BF018F3F9F4FA105B10540F0E5
:100110001092BC011092BD011092BE011092BF015D
:10012000BF91AF919F918F912F910F900FBE0F9024
:100130001F9018951F920F920FB60F9211242F93B4
:100140008F939F93AF93BF938091660190916701C6
:10015000A0916801B09169010196A11DB11D809324
:10016000660190936701A0936801B0936901883E8E
:100170009340A105B105D8F0109266011092670175
:100180001092680110926901809176019091770137
:10019000A0917801B09179010196A11DB11D8093C4
:1001A000760190937701A0937801B0937901BF9184
:1001B000AF919F918F912F910F900FBE0F901F9035
:1001C00018959BB39D7F9BBB20E030E012C09BB392
:1001D0009E7F9BBB882324F49BB394609BBB03C08E
:1001E0009BB39B7F9BBB880F9BB391609BBB2F5F97
:1001F0003F4F283031055CF320E030E012C08BB374
:100200008E7F8BBB662324F48BB384608BBB03C0CF
:100210008BB38B7F8BBB660F8BB381608BBB2F5FE8
:100220003F4F283031055CF308959BB39D7F9BBB06
:1002300020E030E012C09BB39E7F9BBB882324F458
:100240009BB394609BBB03C09BB39B7F9BBB880FFE
:100250009BB391609BBB2F5F3F4F283031055CF310
:1002600020E030E012C08BB38E7F8BBB662324F47A
:100270008BB384608BBB03C08BB38B7F8BBB660F50
:100280008BB381608BBB2F5F3F4F283031055CF310
:100290008BB382608BBB08950F931F93CF93DF9333
:1002A000C1E0D0E01FC08E0101501109F801E259F0
:1002B000FE4F60818C2F85DFF801EE55FE4F608187
:1002C0008C2F7FDFF801E655FE4F60818C2F79DFA0
:1002D000F801E253FE4F60818C2F73DF8BB3826095
:1002E0008BBB2196C930D105F4F2DF91CF911F91DC
:1002F0000F910895E8E2F1E04081518162817381BC
:1003000084819581A681B781842B952BA62BB72B51
:1003100040A551A562A573A5842B952BA62BB72BC1
:1003200044A555A566A577A5842B952BA62BB72BA1
:10033000892B8A2B8B2B09F475C08091C201909177
:10034000C301A091C401B091C5010097A105B105F9
:1003500061F00197A109B1098093C2019093C30193
:10036000A093C401B093C501089583E090E0A0E09C
:10037000B0E08093C2019093C301A093C401B093F5
:10038000C5010895F901EE0FFF1FEE0FFF1FE6589C
:10039000FE4F4081518162817381F9013296EE0FE7
:1003A000FF1FEE0FFF1FE85DFE4F80819181A2814C
:1003B000B3810090760104C0880F991FAA1FBB1F4C
:1003C0000A94D2F784239523A623B723892B8A2B5B
:1003D0008B2B29F18091C2019091C301A091C4019E
:1003E000B091C5010097A105B10561F00197A10980
:1003F000B1098093C2019093C301A093C401B0934B
:10040000C501089583E090E0A0E0B0E08093C201D0
:100410009093C301A093C401B093C50108952F5FC9
:100420003F4F02C020E030E0283031050CF4AACF65
:100430000895E8E2F1E04081518162817381848115
:100440009581A681B781842B952BA62BB72B408550
:10045000518562857385842B952BA62BB72B892B11
:100460008A2B8B2BE9F022C09C012F5F3F4FFC01B0
:100470003296EE0FFF1FEE0FFF1FE85DFE4F8081EB
:100480009181A281B381F901EE0FFF1FEE0FFF1FD3
:10049000E85DFE4F80839183A283B383C90102C0CC
:1004A00080E090E088309105FCF208958091C001D1
:1004B0009091C10101979093C1018093C00108956B
:1004C000E8E2F1E044A155A166A177A180A591A53C
:1004D000A2A5B3A5842B952BA62BB72B44A555A578
:1004E00066A577A5842B952BA62BB72B892B8A2B5A
:1004F0008B2BD9F01FC0FC013296DC011196AA0F9C
:10050000BB1FAA0FBB1FA85DBE4F4D915D916D91A2
:100510007C91EE0FFF1FEE0FFF1FE85DFE4F408343
:10052000518362837383019702C087E090E099232F
:1005300014F7089580916A0190916B01019790934F
:100540006B0180936A010895CF93DF932091C001DE
:100550003091C10180916A0190916B0182179307DC
:1005600024F012C066DF219602C0C1E0D0E0809185
:10057000C0019091C10120916A0130916B01821BF1
:10058000930B8C179D0774F720916A0130916B01D2
:100590008091C0019091C1018217930724F012C08D
:1005A0008FDF219602C0C1E0D0E080916A01909176
:1005B0006B012091C0013091C101821B930B8C17FC
:1005C0009D0774F7DF91CF910895CF92DF92EF925C
:1005D000FF920F931F93CF93DF931092B30110926A
:1005E000B20110926D0110926C0120E030E043C026
:1005F000F901EE0FFF1FEE0FFF1FE658FE4FC08000
:10060000D180E280F380F9013296EE0FFF1FEE0FEA
:10061000FF1FE85DFE4F80819181A281B3814091EF
:100620007601509177016091780170917901042EE3
:1006300004C0880F991FAA1FBB1F0A94D2F78C21F0
:100640009D21AE21BF21892B8A2B8B2B91F041500C
:1006500051096109710940937601509377016093C4
:1006600078017093790181E090E090936D0180931F
:100670006C012F5F3F4F283031050CF4B9CF8091CA
:100680006C0190916D01892B89F5A0E0B0E0DDC08F
:10069000F9013296EE0FFF1FEE0FFF1FE85DFE4FD0
:1006A00080819181A281B3810090760104C0880F7E
:1006B000991FAA1FBB1F0A94D2F780839183A2833C
:1006C000B383F901EA53FE4F40814A2B4083F9017D
:1006D000EC54FE4F4081492B4083F901E65AFE4F0E
:1006E0004081842B80832F5F3F4F02C020E030E0A9
:1006F000283031056CF21092760110927701109239
:10070000780110927901A5C0FD013296EE0FFF1F0E
:10071000EE0FFF1FE85DFE4F4081518162817381C2
:100720000091760110917701209178013091790143
:10073000002E04C0440F551F661F771F0A94D2F77E
:10074000472F552766277727452B462B472BA1F0A8
:1007500001501109210931090093760110937701A5
:10076000209378013093790181E090E09093B30178
:100770008093B201A0E0B0E0C091B201D091B3018A
:100780002097F1F422C0FC013296EE0FFF1FEE0F0E
:10079000FF1FE85DFE4F40815181628173810090AF
:1007A000760104C0440F551F661F771F0A94D2F7C5
:1007B000FC01EA53FE4F2081262B2083019602C0C4
:1007C00080E090E088309105F4F2A730B105E1F5C2
:1007D000CD2B41F0109276011092770110927801A2
:1007E0001092790120E030E02BC0F901EE0FFF1FDD
:1007F000EE0FFF1FE658FE4F4081518162817381E9
:10080000D9011296AA0FBB1FAA0FBB1FA85DBE4F2E
:100810008D919D910D90BC91A02D0090760104C00A
:10082000880F991FAA1FBB1F0A94D2F7842B952B00
:10083000A62BB72B80839183A283B3832F5F3F4F77
:100840002830310594F205C01196A830B1050CF49A
:100850005BCFDF91CF911F910F91FF90EF90DF90D1
:10086000CF90089587E08ABB8EEF82BF81E083BF7F
:1008700082E085BD81E487BF789460E089E0D5DCC3
:1008800061E08AE0D2DC67E08BE0CFDC61E08CE005
:10089000CCDC60E08FE0C9DCC1E0D0E01CC08E01A0
:1008A00001501109F801E656FE4F60818C2FBDDC26
:1008B000F801E65AFE4F60818C2FB7DCF801EC544A
:1008C000FE4F60818C2FB1DCF801EA53FE4F60814E
:1008D0008C2FABDC2196C930D1050CF38091BC0183
:1008E0009091BD0177D180E090E00CC0FC01EE0F4B
:1008F000FF1FEE0FFF1FE658FE4F1082118212827B
:1009000013820196883091058CF320E030E026C0F8
:10091000F901EA53FE4F808190E0A0E0B0E0F901D8
:10092000EE0FFF1FEE0FFF1FE658FE4FBA2FA92F45
:10093000982F8827E901CC54DE4F4881842BBA2FA9
:10094000A92F982F8827E901C65ADE4F4881842BAA
:1009500080839183A283B3832F5F3F4F283031057B
:10096000BCF283B3809580FF51C0809104019091C7
:100970000501A0910601B0910701892B8A2B8B2BD1
:1009800009F483C01092040110920501109206012F
:10099000109207010091C2011091C3012091C4017E
:1009A0003091C5010F5F1F4F2F4F3F4F037011272D
:1009B000222733270093C2011093C3012093C4015F
:1009C0003093C50180E090E01CC0FC013296D80154
:1009D000AA0FBB1FAA0FBB1FAA0FBB1FA85FBE4F4A
:1009E000A80FB91F4C91EE0FFF1FEE0FFF1FE85D20
:1009F000FE4F50E060E070E0408351836283738378
:100A00000196883091050CF375DC3FC081FF1EC054
:100A10008091040190910501A0910601B091070118
:100A2000892B8A2B8B2B89F11092040110920501DE
:100A300010920601109207018091C0019091C101AE
:100A400001969093C1018093C0011FC083FF20C015
:100A50008091040190910501A0910601B0910701D8
:100A6000892B8A2B8B2B89F010920401109205019F
:100A7000109206011092070180916A0190916B011A
:100A8000019690936B0180936A0120E030E02FC0C3
:100A900081E090E0A0E0B0E0809304019093050134
:100AA000A0930601B0930701F0CFC9010296E0912F
:100AB000C201F091C301EE0FFF1FEE0FFF1FEE0FFB
:100AC000FF1FE85FFE4FE20FF31F4081FC01EE0FB6
:100AD000FF1FEE0FFF1FE85DFE4F842F90E0A0E0A8
:100AE000B0E080839183A283B3832F5F3F4F283090
:100AF0003105DCF229DD69DD80E090E01CC0FC01FD
:100B0000EE0FFF1FEE0FFF1FE658FE4F20813181D1
:100B10004281FC01E253FE4F4083FC01E655FE4F4B
:100B20003083FC01EE55FE4F2083FC01E259FE4F5D
:100B300020E120830196883091050CF3ADDBCECE09
:100B40008F929F92AF92BF92CF92DF92EF92FF92DD
:100B5000CF93DF93EC01688179818A819B81611554
:100B600071058105910521F464E279ED8BE597E04B
:100B70002DE133EF41E050E038D049015A019B01AB
:100B8000AC01A7EAB1E44DD06B017C01ACEEB4EF4F
:100B9000A501940152D0DC01CB018C0D9D1DAE1D31
:100BA000BF1DB7FF03C00197A109B048888399838F
:100BB000AA83BB839F77DF91CF91FF90EF90DF9067
:100BC000CF90BF90AF909F908F900895B9CF80E065
:100BD00091E0B6CFA0E0B0E08093000190930101D6
:100BE000A0930201B09303010895052E97FB16F41C
:100BF00000940FD057FD05D024D007FC02D046F456
:100C000008C050954095309521953F4F4F4F5F4F0D
:100C1000089590958095709561957F4F8F4F9F4F68
:100C2000089531D0A59F900DB49F900DA49F800D85
:100C3000911D11240895B7FFF4CFF3DF821B930BAE
:100C40000895A1E21A2EAA1BBB1BFD010DC0AA1F0D
:100C5000BB1FEE1FFF1FA217B307E407F50720F025
:100C6000A21BB30BE40BF50B661F771F881F991FA0
:100C70001A9469F760957095809590959B01AC01E9
:100C8000BD01CF010895A29FB001B39FC001A39FF2
:100C9000700D811D1124911DB29F700D811D1124B5
:080CA000911D0895F894FFCFA7
:100CA8000100000001000000000002020202000032
:100CB800000000000F000000000002020202000015
:080CC8000000000F0000000015
:00000001FF
